{
  "contractName": "EthSwap",
  "abi": [
    {
      "inputs": [
        {
          "internalType": "contract ERC20",
          "name": "_token",
          "type": "address"
        }
      ],
      "stateMutability": "nonpayable",
      "type": "constructor"
    },
    {
      "inputs": [],
      "name": "rate",
      "outputs": [
        {
          "internalType": "uint256",
          "name": "",
          "type": "uint256"
        }
      ],
      "stateMutability": "view",
      "type": "function",
      "constant": true
    },
    {
      "inputs": [],
      "name": "token",
      "outputs": [
        {
          "internalType": "contract ERC20",
          "name": "",
          "type": "address"
        }
      ],
      "stateMutability": "view",
      "type": "function",
      "constant": true
    },
    {
      "inputs": [],
      "name": "getToken",
      "outputs": [
        {
          "internalType": "address",
          "name": "",
          "type": "address"
        }
      ],
      "stateMutability": "view",
      "type": "function",
      "constant": true
    },
    {
      "inputs": [],
      "name": "getMsgSender",
      "outputs": [
        {
          "internalType": "address",
          "name": "",
          "type": "address"
        }
      ],
      "stateMutability": "view",
      "type": "function",
      "constant": true
    },
    {
      "inputs": [],
      "name": "getThisAddress",
      "outputs": [
        {
          "internalType": "address",
          "name": "",
          "type": "address"
        }
      ],
      "stateMutability": "view",
      "type": "function",
      "constant": true
    },
    {
      "inputs": [],
      "name": "getTokenOwner",
      "outputs": [
        {
          "internalType": "address",
          "name": "",
          "type": "address"
        }
      ],
      "stateMutability": "view",
      "type": "function",
      "constant": true
    },
    {
      "inputs": [],
      "name": "buyToken",
      "outputs": [],
      "stateMutability": "payable",
      "type": "function",
      "payable": true
    },
    {
      "inputs": [],
      "name": "sellToken",
      "outputs": [],
      "stateMutability": "payable",
      "type": "function",
      "payable": true
    }
  ],
  "bytecode": "0x6080604052606460015534801561001557600080fd5b506040516108db3803806108db833981810160405281019061003791906100f2565b806000806101000a81548173ffffffffffffffffffffffffffffffffffffffff021916908373ffffffffffffffffffffffffffffffffffffffff1602179055505061011f565b600080fd5b600073ffffffffffffffffffffffffffffffffffffffff82169050919050565b60006100ad82610082565b9050919050565b60006100bf826100a2565b9050919050565b6100cf816100b4565b81146100da57600080fd5b50565b6000815190506100ec816100c6565b92915050565b6000602082840312156101085761010761007d565b5b6000610116848285016100dd565b91505092915050565b6107ad8061012e6000396000f3fe60806040526004361061007b5760003560e01c8063a48217191161004e578063a48217191461010b578063b7182b9514610115578063d395382214610140578063fc0c546a1461016b5761007b565b806321df0da7146100805780632c4e722e146100ab5780637a6ce2e1146100d65780639769f0b014610101575b600080fd5b34801561008c57600080fd5b50610095610196565b6040516100a29190610463565b60405180910390f35b3480156100b757600080fd5b506100c06101bf565b6040516100cd9190610497565b60405180910390f35b3480156100e257600080fd5b506100eb6101c5565b6040516100f89190610463565b60405180910390f35b6101096101cd565b005b6101136101cf565b005b34801561012157600080fd5b5061012a61035f565b6040516101379190610463565b60405180910390f35b34801561014c57600080fd5b506101556103f6565b6040516101629190610463565b60405180910390f35b34801561017757600080fd5b506101806103fe565b60405161018d9190610511565b60405180910390f35b60008060009054906101000a900473ffffffffffffffffffffffffffffffffffffffff16905090565b60015481565b600033905090565b565b6000600154346101df919061055b565b90508060008054906101000a900473ffffffffffffffffffffffffffffffffffffffff1673ffffffffffffffffffffffffffffffffffffffff166370a08231306040518263ffffffff1660e01b815260040161023b9190610463565b602060405180830381865afa158015610258573d6000803e3d6000fd5b505050506040513d601f19601f8201168201806040525081019061027c91906105e6565b10156102bd576040517f08c379a00000000000000000000000000000000000000000000000000000000081526004016102b490610670565b60405180910390fd5b60008054906101000a900473ffffffffffffffffffffffffffffffffffffffff1673ffffffffffffffffffffffffffffffffffffffff1663a9059cbb33836040518363ffffffff1660e01b8152600401610318929190610690565b6020604051808303816000875af1158015610337573d6000803e3d6000fd5b505050506040513d601f19601f8201168201806040525081019061035b91906106f1565b5050565b60008060009054906101000a900473ffffffffffffffffffffffffffffffffffffffff1673ffffffffffffffffffffffffffffffffffffffff1663b2bdfa7b6040518163ffffffff1660e01b8152600401602060405180830381865afa1580156103cd573d6000803e3d6000fd5b505050506040513d601f19601f820116820180604052508101906103f1919061074a565b905090565b600030905090565b60008054906101000a900473ffffffffffffffffffffffffffffffffffffffff1681565b600073ffffffffffffffffffffffffffffffffffffffff82169050919050565b600061044d82610422565b9050919050565b61045d81610442565b82525050565b60006020820190506104786000830184610454565b92915050565b6000819050919050565b6104918161047e565b82525050565b60006020820190506104ac6000830184610488565b92915050565b6000819050919050565b60006104d76104d26104cd84610422565b6104b2565b610422565b9050919050565b60006104e9826104bc565b9050919050565b60006104fb826104de565b9050919050565b61050b816104f0565b82525050565b60006020820190506105266000830184610502565b92915050565b7f4e487b7100000000000000000000000000000000000000000000000000000000600052601160045260246000fd5b60006105668261047e565b91506105718361047e565b9250817fffffffffffffffffffffffffffffffffffffffffffffffffffffffffffffffff04831182151516156105aa576105a961052c565b5b828202905092915050565b600080fd5b6105c38161047e565b81146105ce57600080fd5b50565b6000815190506105e0816105ba565b92915050565b6000602082840312156105fc576105fb6105b5565b5b600061060a848285016105d1565b91505092915050565b600082825260208201905092915050565b7f6572726f72205b315d0000000000000000000000000000000000000000000000600082015250565b600061065a600983610613565b915061066582610624565b602082019050919050565b600060208201905081810360008301526106898161064d565b9050919050565b60006040820190506106a56000830185610454565b6106b26020830184610488565b9392505050565b60008115159050919050565b6106ce816106b9565b81146106d957600080fd5b50565b6000815190506106eb816106c5565b92915050565b600060208284031215610707576107066105b5565b5b6000610715848285016106dc565b91505092915050565b61072781610442565b811461073257600080fd5b50565b6000815190506107448161071e565b92915050565b6000602082840312156107605761075f6105b5565b5b600061076e84828501610735565b9150509291505056fea2646970667358221220fc32bdf741cdf1889b0f7b59aafea847d6b4057210e81e49f94fcafac8e5307164736f6c634300080f0033",
  "immutableReferences": {},
  "source": "// SPDX-License-Identifier: MIT\r\npragma solidity ^0.8.15;\r\n\r\nimport \"../node_modules/openzeppelin-solidity/contracts/token/ERC20/ERC20.sol\";\r\n\r\n\r\n//ChanToken Tx CA\r\n//EthSwap Tx (ingToken CA)\r\n    // CA.balanceOf()\r\n    // CA.transfer()\r\ncontract EthSwap {\r\n    ERC20 public token;\r\n    uint public rate = 100;\r\n\r\n    // ERC20  CA   --> _token -> CA\r\n    constructor(ERC20 _token){\r\n        token = _token;\r\n    }\r\n\r\n    function getToken() public view returns (address) {\r\n        return address(token);\r\n    }\r\n\r\n    function getMsgSender() public view returns (address) {\r\n        return msg.sender;\r\n    }\r\n\r\n    function getThisAddress() public view returns (address) {\r\n        return address(this);\r\n    }\r\n\r\n    function getTokenOwner() public view returns (address) {\r\n        return token._owner();\r\n    }\r\n\r\n    // 1ETH   ? 1ETH - 100Token\r\n    // ETH -> TOKEN    (buy)\r\n    function buyToken() public payable {\r\n        // buyToken\r\n        // send({from:'0x12312', value:1ETH * (10**18)})\r\n        // 1ETH * (10**18) * 100(rate)\r\n        uint256 tokenAmount = msg.value * rate;\r\n        require(token.balanceOf(address(this)) >= tokenAmount, \"error [1]\");\r\n        token.transfer(msg.sender, tokenAmount);\r\n    }\r\n\r\n\r\n    // TOKEN -> ETH TOKEN  ETH  (sell)\r\n    function sellToken() public payable {\r\n\r\n    }\r\n}\r\n",
  "sourcePath": "/home/juchan/workspace/220721/truffle/contracts/ethSwap.sol",
  "compiler": {
    "name": "solc",
    "version": "0.8.15+commit.e14f2714.Emscripten.clang"
  },
  "schemaVersion": "3.4.8",
  "updatedAt": "2022-07-22T03:01:25.896Z",
  "networkType": "ethereum",
  "devdoc": {
    "kind": "dev",
    "methods": {},
    "version": 1
  },
  "userdoc": {
    "kind": "user",
    "methods": {},
    "version": 1
  }
}